{
  "transactions": [
    {
      "hash": "0xc48c73d8c0ce5bae0797f19e36bc3d001d346cfc876cf7eb998529392607383c",
      "transactionType": "CALL",
      "contractName": null,
      "contractAddress": "0x2416092f143378750bb29b79ed961ab195cceea5",
      "function": "approve(address,uint256)",
      "arguments": [
        "0x1117ef14c6a13bAf9486eB85417219096E098cfA",
        "20000000000000000"
      ],
      "transaction": {
        "from": "0xadef586efb3287da4d7d1cbe15f12e0be69e0df0",
        "to": "0x2416092f143378750bb29b79ed961ab195cceea5",
        "gas": "0xc42b",
        "value": "0x0",
        "input": "0x095ea7b30000000000000000000000001117ef14c6a13baf9486eb85417219096e098cfa00000000000000000000000000000000000000000000000000470de4df820000",
        "nonce": "0x1b",
        "chainId": "0x82"
      },
      "additionalContracts": [],
      "isFixedGasLimit": false
    },
    {
      "hash": "0xd2db6c7cbf0662288815bfbfb24a7aab649fa7954e1fe96ed71e4de8267d3092",
      "transactionType": "CALL",
      "contractName": "PoolSwapTest",
      "contractAddress": "0x1117ef14c6a13baf9486eb85417219096e098cfa",
      "function": "swap((address,address,uint24,int24,address),(bool,int256,uint160),(bool,bool),bytes)",
      "arguments": [
        "(0x0000000000000000000000000000000000000000, 0x2416092f143378750bb29b79eD961ab195CcEea5, 8388608, 1, 0x09DEA99D714A3a19378e3D80D1ad22Ca46085080)",
        "(true, -20000000000000000, 4295128740)",
        "(false, false)",
        "0x"
      ],
      "transaction": {
        "from": "0xadef586efb3287da4d7d1cbe15f12e0be69e0df0",
        "to": "0x1117ef14c6a13baf9486eb85417219096e098cfa",
        "gas": "0x3ce20",
        "value": "0x470de4df820000",
        "input": "0x2229d0b400000000000000000000000000000000000000000000000000000000000000000000000000000000000000002416092f143378750bb29b79ed961ab195cceea50000000000000000000000000000000000000000000000000000000000800000000000000000000000000000000000000000000000000000000000000000000100000000000000000000000009dea99d714a3a19378e3d80d1ad22ca460850800000000000000000000000000000000000000000000000000000000000000001ffffffffffffffffffffffffffffffffffffffffffffffffffb8f21b207e000000000000000000000000000000000000000000000000000000000001000276a40000000000000000000000000000000000000000000000000000000000000000000000000000000000000000000000000000000000000000000000000000000000000000000000000000000000000000000000000000000000000000000001600000000000000000000000000000000000000000000000000000000000000000",
        "nonce": "0x1c",
        "chainId": "0x82"
      },
      "additionalContracts": [],
      "isFixedGasLimit": false
    }
  ],
  "receipts": [
    {
      "status": "0x1",
      "cumulativeGasUsed": "0x42100d",
      "logs": [
        {
          "address": "0x2416092f143378750bb29b79ed961ab195cceea5",
          "topics": [
            "0x8c5be1e5ebec7d5bd14f71427d1e84f3dd0314c0f7b2291e5b200ac8c7c3b925",
            "0x000000000000000000000000adef586efb3287da4d7d1cbe15f12e0be69e0df0",
            "0x0000000000000000000000001117ef14c6a13baf9486eb85417219096e098cfa"
          ],
          "data": "0x00000000000000000000000000000000000000000000000000470de4df820000",
          "blockHash": "0x83570e1b2772561b501153838d7d97de11bd2844da1868c094c204937375f08a",
          "blockNumber": "0xfa69f6",
          "transactionHash": "0xc48c73d8c0ce5bae0797f19e36bc3d001d346cfc876cf7eb998529392607383c",
          "transactionIndex": "0xc",
          "logIndex": "0x13",
          "removed": false
        }
      ],
      "logsBloom": "0x00000000000000000000000000000000000000000000000000000000000000060000000000000080000000000000000000000000000000000000000000200000000000000400000000000000000000000000000000000000000000000000000000000000000004004000000000000000000000000000000000000000000000000000000000000000000000000000000000000000000000000000000002000000020000000000000000000000000000000000000000000000000000000000000000000000000000000000000100000000000000000000000000000000000000004010000000000000000000000000000000000000000000000000000000000000",
      "type": "0x2",
      "transactionHash": "0xc48c73d8c0ce5bae0797f19e36bc3d001d346cfc876cf7eb998529392607383c",
      "transactionIndex": "0xc",
      "blockHash": "0x83570e1b2772561b501153838d7d97de11bd2844da1868c094c204937375f08a",
      "blockNumber": "0xfa69f6",
      "gasUsed": "0x8e06",
      "effectiveGasPrice": "0xe988",
      "from": "0xadef586efb3287da4d7d1cbe15f12e0be69e0df0",
      "to": "0x2416092f143378750bb29b79ed961ab195cceea5",
      "contractAddress": null,
      "l1BaseFeeScalar": "0x7d0",
      "l1BlobBaseFee": "0x1",
      "l1BlobBaseFeeScalar": "0xdbba0",
      "l1Fee": "0x40c8614d3",
      "l1GasPrice": "0x143e9e666",
      "l1GasUsed": "0x640"
    },
    {
      "status": "0x1",
      "cumulativeGasUsed": "0x44aa1f",
      "logs": [
        {
          "address": "0x1f98400000000000000000000000000000000004",
          "topics": [
            "0x40e9cecb9f5f1f1c5b9c97dec2917b7ee92e57ba5563708daca94dd84ad7112f",
            "0x7dbe9918ba991e7c2b078ec8ce882a060024a6126927cf66553a359e427f2f6a",
            "0x0000000000000000000000001117ef14c6a13baf9486eb85417219096e098cfa"
          ],
          "data": "0xffffffffffffffffffffffffffffffffffffffffffffffffffb8f21b207e00000000000000000000000000000000000000000000000000000043d3954a556a3e0000000000000000000000000000000000000000fa1e201024c18ef2b003fe6800000000000000000000000000000000000000000000000a826354988e6382ebfffffffffffffffffffffffffffffffffffffffffffffffffffffffffffffe2f0000000000000000000000000000000000000000000000000000000000000064",
          "blockHash": "0x83570e1b2772561b501153838d7d97de11bd2844da1868c094c204937375f08a",
          "blockNumber": "0xfa69f6",
          "transactionHash": "0xd2db6c7cbf0662288815bfbfb24a7aab649fa7954e1fe96ed71e4de8267d3092",
          "transactionIndex": "0xd",
          "logIndex": "0x14",
          "removed": false
        },
        {
          "address": "0x2416092f143378750bb29b79ed961ab195cceea5",
          "topics": [
            "0xddf252ad1be2c89b69c2b068fc378daa952ba7f163c4a11628f55a4df523b3ef",
            "0x0000000000000000000000001f98400000000000000000000000000000000004",
            "0x000000000000000000000000adef586efb3287da4d7d1cbe15f12e0be69e0df0"
          ],
          "data": "0x0000000000000000000000000000000000000000000000000043d3954a556a3e",
          "blockHash": "0x83570e1b2772561b501153838d7d97de11bd2844da1868c094c204937375f08a",
          "blockNumber": "0xfa69f6",
          "transactionHash": "0xd2db6c7cbf0662288815bfbfb24a7aab649fa7954e1fe96ed71e4de8267d3092",
          "transactionIndex": "0xd",
          "logIndex": "0x15",
          "removed": false
        }
      ],
      "logsBloom": "0x00000000000000000000000000000000000000000000000000000000000000060000000000000080000000000000000000000000040000000000000000000000000000000400000000000008000000000400000000000020000000000000100000000000000006004000000000000000000000000000000000000010000000000000010000000000000000000000000000400000000000000000000002000000000000008000000000000000100000000000000002000000800000000000000000000002000000000000000100000000000000000000000000000000000000004000000000000000004000000000000000000000000000000000000000000000",
      "type": "0x2",
      "transactionHash": "0xd2db6c7cbf0662288815bfbfb24a7aab649fa7954e1fe96ed71e4de8267d3092",
      "transactionIndex": "0xd",
      "blockHash": "0x83570e1b2772561b501153838d7d97de11bd2844da1868c094c204937375f08a",
      "blockNumber": "0xfa69f6",
      "gasUsed": "0x29a12",
      "effectiveGasPrice": "0xe988",
      "from": "0xadef586efb3287da4d7d1cbe15f12e0be69e0df0",
      "to": "0x1117ef14c6a13baf9486eb85417219096e098cfa",
      "contractAddress": null,
      "l1BaseFeeScalar": "0x7d0",
      "l1BlobBaseFee": "0x1",
      "l1BlobBaseFeeScalar": "0xdbba0",
      "l1Fee": "0x5dcc971b6",
      "l1GasPrice": "0x143e9e666",
      "l1GasUsed": "0x90c"
    }
  ],
  "libraries": [],
  "pending": [],
  "returns": {},
  "timestamp": 1747159486,
  "chain": 130,
  "commit": "83f79fa"
}