{
  "transactions": [
    {
      "hash": "0x8d62de2db3fd65c596661299950835f899df3a5536789762293f72a5b0a938b8",
      "transactionType": "CALL",
      "contractName": null,
      "contractAddress": "0x2416092f143378750bb29b79ed961ab195cceea5",
      "function": "approve(address,uint256)",
      "arguments": [
        "0x1117ef14c6a13bAf9486eB85417219096E098cfA",
        "20000000000000000"
      ],
      "transaction": {
        "from": "0xadef586efb3287da4d7d1cbe15f12e0be69e0df0",
        "to": "0x2416092f143378750bb29b79ed961ab195cceea5",
        "gas": "0xc42b",
        "value": "0x0",
        "input": "0x095ea7b30000000000000000000000001117ef14c6a13baf9486eb85417219096e098cfa00000000000000000000000000000000000000000000000000470de4df820000",
        "nonce": "0x19",
        "chainId": "0x82"
      },
      "additionalContracts": [],
      "isFixedGasLimit": false
    },
    {
      "hash": "0xb11402d0eaabfbc0171455eee6a95f85e9b71a91a708deebad1c037c7900fbeb",
      "transactionType": "CALL",
      "contractName": "PoolSwapTest",
      "contractAddress": "0x1117ef14c6a13baf9486eb85417219096e098cfa",
      "function": "swap((address,address,uint24,int24,address),(bool,int256,uint160),(bool,bool),bytes)",
      "arguments": [
        "(0x0000000000000000000000000000000000000000, 0x2416092f143378750bb29b79eD961ab195CcEea5, 8388608, 1, 0x09DEA99D714A3a19378e3D80D1ad22Ca46085080)",
        "(false, 20000000000000000, 1461446703485210103287273052203988822378723970341)",
        "(false, false)",
        "0x"
      ],
      "transaction": {
        "from": "0xadef586efb3287da4d7d1cbe15f12e0be69e0df0",
        "to": "0x1117ef14c6a13baf9486eb85417219096e098cfa",
        "gas": "0x3c952",
        "value": "0x0",
        "input": "0x2229d0b400000000000000000000000000000000000000000000000000000000000000000000000000000000000000002416092f143378750bb29b79ed961ab195cceea50000000000000000000000000000000000000000000000000000000000800000000000000000000000000000000000000000000000000000000000000000000100000000000000000000000009dea99d714a3a19378e3d80d1ad22ca46085080000000000000000000000000000000000000000000000000000000000000000000000000000000000000000000000000000000000000000000470de4df820000000000000000000000000000fffd8963efd1fc6a506488495d951d5263988d250000000000000000000000000000000000000000000000000000000000000000000000000000000000000000000000000000000000000000000000000000000000000000000000000000000000000000000000000000000000000000000001600000000000000000000000000000000000000000000000000000000000000000",
        "nonce": "0x1a",
        "chainId": "0x82"
      },
      "additionalContracts": [],
      "isFixedGasLimit": false
    }
  ],
  "receipts": [
    {
      "status": "0x1",
      "cumulativeGasUsed": "0x5c8d49",
      "logs": [
        {
          "address": "0x2416092f143378750bb29b79ed961ab195cceea5",
          "topics": [
            "0x8c5be1e5ebec7d5bd14f71427d1e84f3dd0314c0f7b2291e5b200ac8c7c3b925",
            "0x000000000000000000000000adef586efb3287da4d7d1cbe15f12e0be69e0df0",
            "0x0000000000000000000000001117ef14c6a13baf9486eb85417219096e098cfa"
          ],
          "data": "0x00000000000000000000000000000000000000000000000000470de4df820000",
          "blockHash": "0x7ab6a71edf7ee96a738a222cc9a873d282f59f3db37716008c361920abaab6f6",
          "blockNumber": "0xfa6979",
          "transactionHash": "0x8d62de2db3fd65c596661299950835f899df3a5536789762293f72a5b0a938b8",
          "transactionIndex": "0x8",
          "logIndex": "0x6",
          "removed": false
        }
      ],
      "logsBloom": "0x00000000000000000000000000000000000000000000000000000000000000060000000000000080000000000000000000000000000000000000000000200000000000000400000000000000000000000000000000000000000000000000000000000000000004004000000000000000000000000000000000000000000000000000000000000000000000000000000000000000000000000000000002000000020000000000000000000000000000000000000000000000000000000000000000000000000000000000000100000000000000000000000000000000000000004010000000000000000000000000000000000000000000000000000000000000",
      "type": "0x2",
      "transactionHash": "0x8d62de2db3fd65c596661299950835f899df3a5536789762293f72a5b0a938b8",
      "transactionIndex": "0x8",
      "blockHash": "0x7ab6a71edf7ee96a738a222cc9a873d282f59f3db37716008c361920abaab6f6",
      "blockNumber": "0xfa6979",
      "gasUsed": "0x8e06",
      "effectiveGasPrice": "0xea55",
      "from": "0xadef586efb3287da4d7d1cbe15f12e0be69e0df0",
      "to": "0x2416092f143378750bb29b79ed961ab195cceea5",
      "contractAddress": null,
      "l1BaseFeeScalar": "0x7d0",
      "l1BlobBaseFee": "0x1",
      "l1BlobBaseFeeScalar": "0xdbba0",
      "l1Fee": "0x4f453a1c0",
      "l1GasPrice": "0x18c5a2270",
      "l1GasUsed": "0x640"
    },
    {
      "status": "0x1",
      "cumulativeGasUsed": "0x5f2412",
      "logs": [
        {
          "address": "0x1f98400000000000000000000000000000000004",
          "topics": [
            "0x40e9cecb9f5f1f1c5b9c97dec2917b7ee92e57ba5563708daca94dd84ad7112f",
            "0x7dbe9918ba991e7c2b078ec8ce882a060024a6126927cf66553a359e427f2f6a",
            "0x0000000000000000000000001117ef14c6a13baf9486eb85417219096e098cfa"
          ],
          "data": "0x00000000000000000000000000000000000000000000000000470de4df820000ffffffffffffffffffffffffffffffffffffffffffffffffffbc277c1361e5fc0000000000000000000000000000000000000000fa24944513ce3789c31b334200000000000000000000000000000000000000000000000a826354988e6382ebfffffffffffffffffffffffffffffffffffffffffffffffffffffffffffffe3100000000000000000000000000000000000000000000000000000000000000b8",
          "blockHash": "0x7ab6a71edf7ee96a738a222cc9a873d282f59f3db37716008c361920abaab6f6",
          "blockNumber": "0xfa6979",
          "transactionHash": "0xb11402d0eaabfbc0171455eee6a95f85e9b71a91a708deebad1c037c7900fbeb",
          "transactionIndex": "0x9",
          "logIndex": "0x7",
          "removed": false
        },
        {
          "address": "0x2416092f143378750bb29b79ed961ab195cceea5",
          "topics": [
            "0x8c5be1e5ebec7d5bd14f71427d1e84f3dd0314c0f7b2291e5b200ac8c7c3b925",
            "0x000000000000000000000000adef586efb3287da4d7d1cbe15f12e0be69e0df0",
            "0x0000000000000000000000001117ef14c6a13baf9486eb85417219096e098cfa"
          ],
          "data": "0x00000000000000000000000000000000000000000000000000033560f2e3e5fc",
          "blockHash": "0x7ab6a71edf7ee96a738a222cc9a873d282f59f3db37716008c361920abaab6f6",
          "blockNumber": "0xfa6979",
          "transactionHash": "0xb11402d0eaabfbc0171455eee6a95f85e9b71a91a708deebad1c037c7900fbeb",
          "transactionIndex": "0x9",
          "logIndex": "0x8",
          "removed": false
        },
        {
          "address": "0x2416092f143378750bb29b79ed961ab195cceea5",
          "topics": [
            "0xddf252ad1be2c89b69c2b068fc378daa952ba7f163c4a11628f55a4df523b3ef",
            "0x000000000000000000000000adef586efb3287da4d7d1cbe15f12e0be69e0df0",
            "0x0000000000000000000000001f98400000000000000000000000000000000004"
          ],
          "data": "0x0000000000000000000000000000000000000000000000000043d883ec9e1a04",
          "blockHash": "0x7ab6a71edf7ee96a738a222cc9a873d282f59f3db37716008c361920abaab6f6",
          "blockNumber": "0xfa6979",
          "transactionHash": "0xb11402d0eaabfbc0171455eee6a95f85e9b71a91a708deebad1c037c7900fbeb",
          "transactionIndex": "0x9",
          "logIndex": "0x9",
          "removed": false
        }
      ],
      "logsBloom": "0x00000000000000000000000000000000000000000000000000000000000000060000000000000080000000000000000000000000040000000000000000200000000000000400000000000008000000000400000000000020000000000000100000000000000006004000000000000000000000000000000000000010000000000000010000000000000000000000000000400000000000000000000002000000020000008000000000000000100000000000000002000000800000000000000000000002000000000000000100000000000000000000000000000000000000004010000000000000004000000000000000000000000000000000000000000000",
      "type": "0x2",
      "transactionHash": "0xb11402d0eaabfbc0171455eee6a95f85e9b71a91a708deebad1c037c7900fbeb",
      "transactionIndex": "0x9",
      "blockHash": "0x7ab6a71edf7ee96a738a222cc9a873d282f59f3db37716008c361920abaab6f6",
      "blockNumber": "0xfa6979",
      "gasUsed": "0x296c9",
      "effectiveGasPrice": "0xea55",
      "from": "0xadef586efb3287da4d7d1cbe15f12e0be69e0df0",
      "to": "0x1117ef14c6a13baf9486eb85417219096e098cfa",
      "contractAddress": null,
      "l1BaseFeeScalar": "0x7d0",
      "l1BlobBaseFee": "0x1",
      "l1BlobBaseFeeScalar": "0xdbba0",
      "l1Fee": "0x74c3e72f2",
      "l1GasPrice": "0x18c5a2270",
      "l1GasUsed": "0x934"
    }
  ],
  "libraries": [],
  "pending": [],
  "returns": {},
  "timestamp": 1747159361,
  "chain": 130,
  "commit": "83f79fa"
}